:060000000A128A110C280F
:10000800FE00030EF1000A08F2000A168A11872C76
:100018000A128A110F288313C230FD001330FE0024
:10002800BA30FF00A03084000A168A115E230A1233
:100038008A110A128A11FB270A128A11EE00831606
:100048000313C701C801C901CA0183120313E201DE
:10005800E301E401E501E601E701E801E901EA015C
:10006800EB01EC01F801F901FA0183010A128A1582
:100078000C2C83120313DF000A168A11CF250A12EB
:100088008A111230831603134B06031D4C284D2882
:100098000D2A0A168A114D230A128A115730831223
:1000A8000313A0009130A1008030D8005808A200A6
:1000B8000A168A1154240A128A117A088312031321
:1000C800D8005807A03E840083130008A000840AC3
:1000D80000088403A1008630DA005A08A2000A1634
:1000E8008A1154240A128A11723083120313A00051
:1000F8009130A100C030D8005808A2000A168A1111
:1001080054240A128A11C63083120313D8005808DF
:10011800A4000A30F3000030F4006A08D900DA01BC
:100128005908F5005A08F6000A168A1137260A12E5
:100138008A117308303E0A168A116D230A128A1131
:10014800C73083120313D8005808A4000A30F300FC
:100158000030F4006A08D900DA015908F5005A0895
:10016800F6000A168A1115250A128A117308303EFC
:100178000A168A116D230A128A11C83083120313D2
:10018800D8005808A4003A300A168A116D230A12BA
:100198008A11C93083120313D8005808A4000A3002
:1001A800F3000030F4007808D900DA015908F500A6
:1001B8005A08F6000A168A1137260A128A11730895
:1001C800303E0A168A116D230A128A11CA30831228
:1001D8000313D8005808A4000A30F3000030F400D4
:1001E8007808D900DA015908F5005A08F6000A1605
:1001F8008A1115250A128A117308303E0A168A11C7
:100208006D230A128A114F3083120313A000913014
:10021800A1009530D8005808A2000A168A11542463
:100228000A128A11333083120313DA00BB30D90063
:10023800DF30D800D80B1E29D90B1E29DA0B1E294E
:100248000A168A114D230A128A11ED3083120313FC
:10025800A0009030A1008030D8005808A2000A16EB
:100268008A1154240A128A11843083120313A000BD
:100278009130A100C030D8005808A2000A168A118F
:1002880054240A128A11443083120313A0009030B8
:10029800A100D030D8005808A2000A168A115424A8
:1002A8000A128A11831203136A08D800D901580860
:1002B800F3005908F4003C30F5000030F6000A1647
:1002C8008A1129240A128A117808730783120313E2
:1002D800E4000030031801307407E5006508E30006
:1002E8006408E2006408F3006508F4000030F41BB9
:1002F800FF30F500F60001300A168A1144270A1269
:100308008A11760883120313B1007508B0007408C7
:10031800AF007308AE003E30AD00EB30AC00853066
:10032800AB001F30AA000A128A1139240A128A1156
:10033800831203132D08C7002C08C6002B08C5001C
:100348002A08C4000A128A1503200A128A11831285
:1003580003134508E9004408E8006408F300650849
:10036800F4000030F41BFF30F500F60001300A16E7
:100378008A1144270A128A11760883120313B100DE
:100388007508B0007408AF007308AE003D30AD00CA
:10039800F530AC00C230AB008F30AA000A128A11C7
:1003A80039240A128A11831203132D08C7002C0856
:1003B800C6002B08C5002A08C4000A128A150320A3
:1003C8000A128A11831203134508E7004408E6005D
:1003D8006809D8006909D900D80A0319D90A660832
:1003E8005802DA006708031C670A5902DB00640830
:1003F8005A0783160313C9008312031365080318E9
:10040800650A5B0783160313CA00831203131215C8
:1004180007151F3083125F06031D132A142A1A2A90
:10042800121107110530D8005808ED006A08D800E5
:10043800D9015808F3005908F4003C30F5000030A1
:10044800F6000A168A1129240A128A1178087307F5
:1004580083120313E4000030031801307407E50029
:1004680008307A020318392A3A2AA72A6808620249
:10047800D8006908031C690A6302D9006508803A34
:10048800DA005908803A5A02031D4C2A58086402B7
:10049800031C4F2A502A602A8E3083120313A000AF
:1004A8009130A1008B30D8005808A2000A168A1192
:1004B80054240A128A11682B831203136809D8007E
:1004C8006909D900D80A0319D90A66085802DA0056
:1004D8006708031C670A5902DB0062085A07DC0038
:1004E80063080318630A5B07DD006508803ADE00CD
:1004F8005D08803A5E02031D832A5C086402031CBF
:10050800862A872A972A783083120313A00091300D
:10051800A1008B30D8005808A2000A168A1154246A
:100528000A128A11682B6C3083120313A0009130D1
:10053800A1008B30D8005808A2000A168A1154244A
:100548000A128A11682B08307A06031DAC2AAD2AD4
:10055800472B6408F3006508F4000030F41BFF30F3
:10056800F500F60001300A168A1144270A128A118A
:10057800760883120313CF007508CE007408CD00E7
:100588007308CC006208F3006308F4000030F41B21
:10059800FF30F500F60001300A168A1144270A12C6
:1005A8008A11760883120313CB007508CA007408F1
:1005B800C9007308C8006208F3006308F40000303B
:1005C800F41BFF30F500F60001300A168A114427A3
:1005D8000A128A11760883120313B1007508B00055
:1005E8007408AF007308AE003E30AD00CC30AC00EC
:1005F800CC30AB00CD30AA000A128A1139240A1275
:100608008A11831203132D08C7002C08C6002B0873
:10061800C5002A08C4000A168A11DC230A128A11A6
:10062800831203134708D3004608D2004508D100B7
:100638004408D0000A168A11A0260A128A11031C3F
:10064800262B272B372B783083120313A0009130E9
:10065800A1008B30D8005808A2000A168A11542429
:100668000A128A11682B6C3083120313A000913090
:10067800A1008B30D8005808A2000A168A11542409
:100688000A128A11682B09307A06031D4C2B4D2B50
:100698005B2B7830A0009130A1008B30D80058082F
:1006A800A2000A168A1154240A128A11682B8E3065
:1006B800A0009130A1008B30D8005808A2000A167B
:1006C8008A1154240A128A11C63083120313D800DF
:1006D8005808A4000A30F3000030F4006A08D90072
:1006E800DA015908F5005A08F6000A168A11372661
:1006F8000A128A117308303E0A168A116D230A12EB
:100708008A11C73083120313D8005808A4000A308E
:10071800F3000030F4006A08D900DA015908F5003E
:100728005A08F6000A168A1115250A128A11730842
:10073800303E0A168A116D230A128A11C8308312B4
:100748000313D8005808A4003A300A168A116D23FA
:100758000A128A11C93083120313D8005808A4005A
:100768000A30F3000030F4007808D900DA0159089B
:10077800F5005A08F6000A168A1137260A128A1155
:100788007308303E0A168A116D230A128A11CA307C
:1007980083120313D8005808A4000A30F30000306D
:1007A800F4007808D900DA015908F5005A08F6006B
:1007B8000A168A1115250A128A117308303E0A167C
:1007C8008A116D230A128A117808031DEC2BED2B70
:1007D800382C831203136A08031DF32BF42B382CCF
:1007E8001211071187140A168A114D230A128A1149
:1007F800773083120313A0009030A1008030D80016
:100808005808A2000A168A1154240A128A1187303D
:1008180083120313A0009030A100C030D8005808FC
:10082800A2000A168A1154240A128A11333083123C
:100838000313DA00BB30D900DF30D800D80B222CE4
:10084800D90B222CDA0B222C831203138710ED010B
:10085800ED0A1030D800580883160313CB000A1687
:100868008A114D230A128A110800831203132D08D6
:100878008039B2003208B7002D08B2003207B30041
:100888003308BD00AC1F492C4A2C4B2C3D143D08A5
:1008980003194F2C502C5F2C3D0A031D542C552C4A
:1008A8005D2C0030AD000030AC000030AB000030F3
:1008B800AA00AC17672C0030AD000030AC00003047
:1008C800AB000030AA0031088039B2003208B70600
:1008D8003108B2003207B3003308B800B01F752CD6
:1008E800762C772C3814380803197B2C7C2C8B2C0D
:1008F800380A031D802C812C892C0030B10000306F
:10090800B0000030AF000030AE00B017932C0030BC
:10091800B1000030B0000030AF000030AE00380841
:100928000319972C982C9D2C3D08031D9C2C9D2C5D
:10093800A62C0030AD000030AC000030AB00003019
:10094800AA00992F2A08B2003208F30030080A16C4
:100958008A1100240A128A11740883120313C3002F
:100968007308C2004208B200B301B401B5013508EA
:10097800BC003408BB003308BA003208B900430889
:10098800B200B301B401B5013508C1003408C00094
:100998003308BF003208BE002B08B2003208F3004B
:1009A8002F080A168A1100240A128A117408831261
:1009B8000313C3007308C2004208B200B301B401B4
:1009C800B5013208B907330803110318013E0319AA
:1009D800EE2CBA07340803110318013E0319F52C4D
:1009E800BB07350803110318013E0319FC2CBC078B
:1009F8004308B200B301B401B5013208BE07330899
:100A080003110318013E03190A2DBF073408031107
:100A18000318013E0319112DC007350803110318E7
:100A2800013E0319182DC1072C08B2003208F30043
:100A38002E080A168A1100240A128A1174088312D1
:100A48000313C3007308C2004208B200B301B40123
:100A5800B5013208B907330803110318013E031919
:100A6800362DBA07340803110318013E03193D2D2A
:100A7800BB07350803110318013E0319442DBC07B1
:100A88004308B200B301B401B5013208BE07330808
:100A980003110318013E0319522DBF07340803112F
:100AA8000318013E0319592DC0073508031103180F
:100AB800013E0319602DC1070830B2000310B90DBB
:100AC800BA0DBB0DBC0DB20B622D2B08B20032085B
:100AD800F3002E080A168A1100240A128A117408D3
:100AE80083120313C3007308C2004208B20043080C
:100AF800B300B401B5013208B9073308031103186C
:100B0800013E0319882DBA07340803110318013E62
:100B180003198F2DBB07350803110318013E03196C
:100B2800962DBC072A08B2003208F3002F080A16CF
:100B38008A1100240A128A11740883120313C3004D
:100B48007308C2004208B2004308B300B401B501FB
:100B58003208B907330803110318013E0319B52DEC
:100B6800BA07340803110318013E0319BC2DBB074B
:100B7800350803110318013E0319C32DBC070830BB
:100B8800B2000310B90DBA0DBB0DBC0DB20BC52DCB
:100B98002A08B2003208F3002E080A168A11002427
:100BA8000A128A11740883120313C3007308C2005F
:100BB8004208B2004308B300B401B5013208B907CE
:100BC800330803110318013E0319EB2DBA07340843
:100BD80003110318013E0319F22DBB073508031151
:100BE8000318013E0319F92DBC072B08B20032087F
:100BF800F30030080A168A1100240A128A117408B0
:100C080083120313C3007308C2004208B2004308EA
:100C1800B300B401B5013208BE0733080311031845
:100C2800013E0319182EBF07340803110318013EAB
:100C380003191F2EC007350803110318013E0319B5
:100C4800262EC1072C08B2003208F3002F080A1616
:100C58008A1100240A128A11740883120313C3002C
:100C68007308C2004208B2004308B300B401B501DA
:100C78003208BE07330803110318013E0319452E35
:100C8800BF07340803110318013E03194C2EC0078F
:100C9800350803110318013E0319532EC1072C0808
:100CA800B2003208F30030080A168A1100240A122A
:100CB8008A11740883120313C3007308C200420820
:100CC800B2004308B300B401B50108300310B20DF7
:100CD800B30DB40DB50DFF3E031D6A2E3208BE07D5
:100CE800330803110318013E03197B2EBF0734088C
:100CF80003110318013E0319822EC007350803119A
:100D08000318013E0319892EC1073908B2003A08B1
:100D1800B3003B08B4003C08B50018300310B50C0C
:100D2800B40CB30CB20CFF3E031D922E3208BE0762
:100D3800330803110318013E0319A32EBF07340813
:100D480003110318013E0319AA2EC0073508031121
:100D58000318013E0319B12EC1070830B200031071
:100D6800B90DBA0DBB0DBC0DB20BB32E3D0838073B
:100D7800B200B301B30D3208823EC2003308031833
:100D8800013EFF3EC300E52E0130B2000310BE0D48
:100D9800BF0DC00DC10DB20BCA2EBC1FD42ED52E4F
:100DA800D62E3E140130B2000310B90DBA0DBB0D9A
:100DB800BC0DB20BD82EFF30C2070318C30AFF3090
:100DC800C307C01FE82EE92EC82EB801BC1FED2EA0
:100DD800EE2E0A2FFF303905B200FF303A05B30076
:100DE800FF303B05B4007F303C05B50035083404BE
:100DF800330432040319012F022F052FB801B80A52
:100E08000A2F3E1C082F092F0A2F022F3808031912
:100E18000E2F0F2F402F0130BE070030031801306E
:100E2800BF07003003180130C00700300318013035
:100E3800C107411C202F212F402F3E08B2003F0838
:100E4800B3004008B4004108B5000130B600350DC4
:100E5800B50CB40CB30CB20CB60B2B2F3508C10073
:100E68003408C0003308BF003208BE000130C20792
:100E78000318C30A0030C3074308803AFF008030D4
:100E88007F02031D492FFF304202031C4C2F4D2FB8
:100E9800582F7F3083120313C1008030C000003008
:100EA800BF000030BE008D2F831203134308803A21
:100EB800FF0080307F02031D632F013042020318B8
:100EC800662F672F732F003083120313C100003081
:100ED800C0000030BF000030BE00B7018D2F831264
:100EE80003134208B2003208BD00FF30BE05FF30D0
:100EF800BF057F30C0050030C1053D1C842F852FFC
:100F0800862FC0173D08B2000310320CB300330817
:100F1800C1003708B2003208C1044108AD004008DA
:100F2800AC003F08AB003E08AA000800F4007408B3
:100F3800031D9F2FA02FA52F8312031306083F39E7
:100F4800FA2F3F30831203130605F3003F30730670
:100F58000319AF2FB02FBD2F6E080319B42FB52F6B
:100F6800BD2FEE01EB0106083F39F3007308EC00D2
:100F7800F92F6E08031DC12FC22FD42F06083F3941
:100F88006C06031DC82FC92FD42F1E306B020318FF
:100F9800CE2FCF2FD42F0130F3007308EB07F92F92
:100FA8001E306B06031DD92FDA2FE12F0130F30015
:100FB8007308EB076C088038FA2F3F300605F300FA
:100FC8003F307306031DE92FEA2FF92F6E08031D22
:100FD800EE2FEF2FF92FEE01EE0A1E306B020318E9
:100FE800F62FF72FF92F6C08FA2F3F30080001343D
:10100600031083120313460D470DC8004808CE008F
:101016004E08031D0F28102819280030C70000307D
:10102600C6000030C5000030C4007E284408C80051
:101036004508C9004608CA004708CB001F30031000
:10104600CB0CCA0CC90CC80CFF3E031D222848084D
:10105600CC004C08CD00C617FF30C405FF30C505CF
:10106600FF30C6050030C7059630CE02CE1F3C289D
:101076003D2857284E08803A973E031843284428AF
:101086004528102801300310C70CC60CC50CC40C2B
:10109600FF3E031D46280130C8004808CE07031D41
:1010A6005528562845286E2820304E02031C5C28F9
:1010B6005D28692810280130C8000310C40DC50D2D
:1010C600C60DC70DC80B60280130CE024E08031DA1
:1010D6006D286E285E284D080319722873287E280D
:1010E600C409C509C609C709C40A0319C50A0319EB
:1010F600C60A0319C70A080083120313A900103091
:10110600831603134B06031D89288A2890280A167E
:101116008A114D230A128A15FA01373083120313F6
:101126002906031D97289828A8280130A600260816
:10113600FA070C307A06031DA128A228A328FA0173
:101146000A168A114D230A128A1566308312031372
:10115600A0009030A1008030A6002608A2000A1642
:101166008A1154240A128A15C03083120313A6006A
:101176002608A4002A300A168A116D230A128A1537
:101186000A307A020318C828C9280F297A08831258
:101196000313A6002607A03E840083130008A000C0
:1011A600840A00088403A100C230A8002808A2000F
:1011B6000A168A1154240A128A157A08831203130E
:1011C600A6002607A23E840083130008A000840A16
:1011D60000088403A1009230A8002808A2000A167D
:1011E6008A1154240A128A157A0883120313A60058
:1011F6002607A43E840083130008A000840A000882
:101206008403A100D230A8002808A2000A168A1179
:1012160054240A128A15A0290A307A06031D1429B5
:10122600152959297A0883120313A6002607A03E1A
:10123600840083130008A000840A00088403A10028
:10124600C230A8002808A2000A168A1154240A12DD
:101256008A157A0883120313A6002607A23E840085
:1012660083130008A000840A00088403A1009230BA
:10127600A8002808A2000A168A1154240A128A1500
:1012860083160313200883120313A0008316031387
:10129600210883120313A100D230A6002608A2005B
:1012A6000A168A1154240A128A15A0290B307A06C6
:1012B600031D5E295F29A0297A0883120313A6005D
:1012C6002607A03E840083130008A000840A0008B5
:1012D6008403A100C230A8002808A2000A168A11B9
:1012E60054240A128A158316031320088312031343
:1012F600A00083160313210883120313A100923062
:10130600A6002608A2000A168A1154240A128A1573
:1013160083160313220883120313A00083160313F4
:10132600230883120313A100D230A6002608A200C8
:101336000A168A1154240A128A1508008312031306
:10134600A9001130831603134B06031DAB29AC29E4
:10135600B229F9010A168A114D230A128A15373065
:10136600831203132906031DB929BA29CA29013094
:10137600A6002608F90705307906031DC329C429E6
:10138600C529F9010A168A114D230A128A15A230B7
:1013960083120313A0009030A1008030A600260817
:1013A600A2000A168A1154240A128A15C030831222
:1013B6000313A6002608A4002A300A168A116D23F4
:1013C6000A128A15033079020318EA29EB29312A11
:1013D600790883120313A6002607B83E84008313F8
:1013E6000008A000840A00088403A100C230A800F7
:1013F6002808A2000A168A1154240A128A157908A6
:1014060083120313A6002607BA3E8400831300083E
:10141600A000840A00088403A1009230A8002808CE
:10142600A2000A168A1154240A128A157908831210
:101436000313A6002607BC3E840083130008A00001
:10144600840A00088403A100D230A8002808A2005C
:101456000A168A1154240A128A15C22A03307906FA
:10146600031D362A372A7B2A790883120313A6001E
:101476002607B83E840083130008A000840A0008EB
:101486008403A100C230A8002808A2000A168A1107
:1014960054240A128A15790883120313A600260714
:1014A600BA3E840083130008A000840A000884035F
:1014B600A1009230A8002808A2000A168A11542416
:1014C6000A128A1583160313380883120313A00021
:1014D60083160313390883120313A100D230A60022
:1014E6002608A2000A168A1154240A128A15C22A4C
:1014F60004307906031D802A812AC22A79088312BC
:101506000313A6002607B83E840083130008A00034
:10151600840A00088403A100C230A8002808A2009B
:101526000A168A1154240A128A15831603133808D8
:1015360083120313A00083160313390883120313BF
:10154600A1009230A6002608A2000A168A11542489
:101556000A128A15831603133A0883120313A0008E
:10156600831603133B0883120313A100D230A6008F
:101576002608A2000A168A1154240A128A1508009F
:10158600DD2B2130F3007308F80083120313EA0100
:101596000B2C2930F3007308F800C82A2D30F3000D
:1015A6007308F800C82A7908F300F4017408003AB1
:1015B6000319DE2A0B2C7308003A0319CC2A013AC8
:1015C6000319C42A033A0319CC2A013A0319D12A6A
:1015D600073A0319D12A0B2C2B30F3007308F800B5
:1015E60083120313EA013230F3007308F800831202
:1015F6000313EA010B2C3930F3007308F800C82AEC
:101606007908F300F4017408003A03190B2B0B2C2C
:101616007308003A0319F62A013A0319EF2A033A26
:101626000319F62A013A0319FE2A073A0319FE2A74
:101636000B2C1A30F3007308F800C82A1F30F30089
:101646007308F800C82A7908F300F4017408003A10
:1016560003192E2B0B2C7308003A03191C2B013A85
:1016660003191C2B033A03191C2B013A0319212BCE
:10167600073A0319212B0B2C1030F3007308F800DE
:1016860083120313EA01EA0A0B2C2430F3007308D1
:10169600F80083120313EA01EA0A1C30F300730808
:1016A600F800C82A1D30F3007308F8000B2C2E3002
:1016B600F3007308F80083120313EA013530F300D0
:1016C6007308F80083120313EA010B2C3C30F30075
:1016D6007308F800C82A7908F300F4017408003A80
:1016E6000319762B0B2C7308003A0319612B013A68
:1016F60003195A2B033A0319612B013A0319692B73
:10170600073A0319692B0B2C1230F3007308F80003
:1017160083120313EA018F2B1430F3007308F800C9
:1017260083120313EA010B2C7908F300F401740801
:10173600003A03199F2B0B2C7308003A03198F2BC1
:10174600013A0319872B033A03198F2B013A031920
:101756008F2B073A03198F2B0B2C0630F3007308D7
:10176600F8000B2C1030F3007308F80083120313F3
:10177600EA011530F3007308F80083120313EA0137
:101786000B2C7908F300F4017408003A0319CC2BEA
:101796000B2C7308003A0319BC2B013A0319B52B1D
:1017A600033A0319BC2B013A03191C2B073A0319F8
:1017B6001C2B0B2C7A08F300F4017408003A031969
:1017C600E52B0B2C7308003A0319D62A013A0319A4
:1017D600032B033A0319262B013A03193F2B073A29
:1017E6000319482B013A0319502B033A0319552BB9
:1017F600013A03196E2B0F3A0319972B013A031975
:10180600B02B033A0319C42B013A0319C42B0B2C32
:10181600080083120313ED01ED0A1030E0006008A2
:1018260083160313CB000A168A1182230A128A151D
:10183600223083120313A0009030A1008030E00014
:101846006008A2000A168A1154240A128A1500306A
:1018560083120313A0009030A100C030E00060089E
:10186600A2000A168A1154240A128A1533308312EA
:101876000313A0009030A1009030E0006008A200A1
:101886000A168A1154240A128A155D2CB83083165A
:101896000313C2000B30C300FF30C2070318C30A8C
:1018A600FF30C307420A031D5C2C430A031D5C2C50
:1018B6005D2C4F2C01300A128A119A270A128A15BA
:1018C6002F3A031D672C682C492C0A168A114D23C2
:1018D6000A128A150A168A1170250A128A151030FC
:1018E60083120313E000600883160313CB00013054
:1018F6000A128A119A270A128A1583120313E00024
:10190600600883160313C600B830C4000B30C50048
:10191600FF30C4070318C50AFF30C507440A031D74
:10192600982C450A031D982C992C8B2CB73046060B
:10193600031D9E2C9F2CB12C831203136D03031DD4
:10194600A52CA62CB12C0230E0006008ED00113069
:10195600E000600883160313CB00522DB7308316C0
:1019660003134606031DB82CB92CFF2C0230831234
:1019760003136D06031DC02CC12CFF2C0A128A15F9
:10198600C3220A128A150A168A114D230A128A15CB
:10199600BC3083120313A0009030A1008030E00019
:1019A6006008A2000A168A1154240A128A15953074
:1019B60083120313A0009030A100C030E00060083D
:1019C600A2000A168A1154240A128A15C9308312F3
:1019D6000313A0009030A1009030E0006008A20040
:1019E6000A168A1154240A128A1503308312031325
:1019F600E0006008ED00522D2F30831603134606D3
:101A0600031D062D072D162D0530831203136D06B3
:101A1600031D0E2D0F2D162D121507150430E0008F
:101A26006008ED00522D522D8316031346080A1244
:101A36008A157F200A128A15692D83160313460814
:101A46000A128A15A1210A128A15692D2F308316CA
:101A560003134606031D302D312D3E2D043083120F
:101A66000313E0006008ED001230E0006008831602
:101A76000313CB007A2C1F304606031D432D442D3D
:101A8600692D83120313ED01ED0A722C83160313DD
:101A960046080A128A113D200A128A15692D8312F8
:101AA6006D08E000E1016108003A03195B2D692D1C
:101AB6006008013A0319172D033A0319202D013A3C
:101AC6000319292D073A0319492D692D8316031386
:101AD600CB017A2C0A128A110C28831203132308CD
:101AE6008039A8002808F3002308A8002807A900C1
:101AF6002908F500A21F802D812D822D75147508E9
:101B06000319862D872D972D750A031D8B2D8C2D78
:101B1600942D0030A3000030A2000030A100003058
:101B2600A000A217A3019F2D0030A3000030A20041
:101B36000030A1000030A00027088039A80028083E
:101B4600F400740873060319A92DAA2DAB2D73177B
:101B56002708A8002807A9002908F400A61FB42D05
:101B6600B52DB62D741474080319BA2DBB2DCB2DC3
:101B7600740A031DBF2DC02DC82D0030A7000030EC
:101B8600A6000030A5000030A400A617A701D32D9B
:101B96000030A7000030A6000030A5000030A400E9
:101BA600750874020318D82DD92D1D2E731FDC2D30
:101BB600DD2DE12D8030A8002808F3067508A80061
:101BC6002808F6007408A8002808F5007608A8007A
:101BD6002808F4002008A8002808F6002408A80011
:101BE6002808A0007608A8002808A4002108A80054
:101BF6002808F6002508A8002808A1007608A800ED
:101C06002808A5002208A8002808F6002608A8002B
:101C16002808A2007608A8002808A6002308A8001D
:101C26002808F6002708A8002808A3007608A800B8
:101C36002808A700F6017408A800A9012908AB0026
:101C460075082802AA00031CAB032B08803AFF0084
:101C560080307F02031D312E1A302A02031C342ED7
:101C6600352E762E83120313230822042104200422
:101C7600031D3E2E402E0130412E0030A8002808BC
:101C8600F6000030A3000030A2000030A1000030B2
:101C9600A0007408A8002808F5007C2E761C542E97
:101CA600552E602E760883120313A8000310280C05
:101CB6000138A9002908F600622E0310F60C8312DB
:101CC6000313201C672E682E692EF6170130A80014
:101CD600230DA30CA20CA10CA00CA80B6B2E01309B
:101CE600A8002808F50774087502031C7B2E7C2EB5
:101CF600512E731B7F2E802ECF2E7508031D842E2A
:101D0600852E902E003083120313A3000030A2000C
:101D16000030A1000030A000FF2F83120313240817
:101D2600A007250803110318013E03199B2EA107DE
:101D3600260803110318013E0319A22EA20727083D
:101D460003110318013E0319A92EA307231CAC2E69
:101D5600AD2E852F761CB02EB12EBA2E7608A80091
:101D66000310280C0138A9002908F600BC2E031020
:101D7600F60C201CBF2EC02EC12EF6170130A8006F
:101D8600230DA30CA20CA10CA00CA80BC32E013092
:101D9600A8002808F507852F831203132308803A25
:101DA600FF002708803A7F02031DE32E2608220241
:101DB600031DE32E25082102031DE32E240820021D
:101DC6000318E62EE72E3F2FFF30A800FF30A900AC
:101DD600FF30AA00FF30AB002408AC002508AD0098
:101DE6002608AE002708AF002008AC022108031C15
:101DF600210FFE2EFF2EAD022208031C220F042FF8
:101E0600052FAE022308031C230F0A2F0B2FAF0248
:101E16002C08A8072D0803182D0F122F132FA9071A
:101E26002E0803182E0F182F192FAA072F0803188C
:101E36002F0AAB072B08A3002A08A2002908A10035
:101E46002808A0008030A8002808F306F609F60A3C
:101E56007608031D2F2F302F4D2F0130A00700309D
:101E660003180130A107003003180130A207003023
:101E760003180130A3074D2F2408A0022508031CD0
:101E8600250FA1022608031C260FA2022708031C01
:101E9600270FA3022308220421042004031D542F24
:101EA600552F812F7608031D592F5A2F812F003069
:101EB600A3000030A2000030A1000030A000FF2FD8
:101EC6000130A8000310A00DA10DA20DA30DA80BB3
:101ED600652FF61F6F2F702F712F2014761C742F0D
:101EE600752F782F0314F60D7A2F0310F60D75084B
:101EF60003197E2F7F2F812F0130F502A21F842F19
:101F0600852F632FF401F61F892F8A2F982F7608C5
:101F16007F3903198F2F902F932FF401F40A982FEE
:101F2600201C962F972F982F902F740803199C2FFB
:101F36009D2FD12F0130A007003003180130A107D3
:101F4600003003180130A207003003180130A30740
:101F5600231CAE2FAF2FD12F2008A8002108A900DF
:101F66002208AA002308AB000130AC002B0DAB0CF5
:101F7600AA0CA90CA80CAC0BB92F2B08A3002A0895
:101F8600A2002908A1002808A000750A0319CC2F71
:101F9600CD2FD12F0130A8002808F507750A03199F
:101FA600D52FD62FDB2F7508031DDA2FDB2FE92F50
:101FB6000030A3000030A2000030A1000030A000D5
:101FC6007508031DE72FE82FE92FF301751CEC2F89
:101FD600ED2FEF2FA217F32F7F30A8002808A205B8
:101FE6007508A8000310280CA9002908A300F31FF0
:101FF600FD2FFE2FFF2FA317080020342034203496
:1020060050344F3457344534523420344F344E34E0
:10201600203420342034203420340034203420343A
:1020260050344F3457344534523449344E3447349F
:1020360020344F344E3420342034203400342034BD
:102046005034723465347334733420344B3465340D
:10205600793420343534203454344F342034003429
:102066002034573441345334483449344E34473499
:1020760020344D3441344334483449344E344534A5
:10208600003435342D3453345434413452345434BA
:102096002034203436342D345034413455345334BE
:1020A6004534003420345734613473346834693429
:1020B6006E34673420346D34613463346834693483
:1020C6006E3465340034573461347334683469349B
:1020D6006E3467342034503472346F34673472345B
:1020E60061346D3473340034503472346F34673471
:1020F6002E34203443346F346D3470346C3465348C
:102106007434653464340034523465346D346F3459
:1021160076346534203443346C346F347434683424
:102126007334003420345334573435343A3420343D
:1021360053345434413452345434203400345734F4
:10214600613474346534723420344C3465347634F6
:1021560065346C343A34003450346C34653461344C
:1021660073346534203443346C346F3473346534DB
:102176000034503472346534733473342034533439
:102186007734693474346334683400342034533417
:10219600573436343A342034533454344F3450346C
:1021A6002034003444344F344F34523420343A34DB
:1021B60020344F34503445344E340034453463347F
:1021C6006F34203463346F34743474346F346E3443
:1021D60073340034463475346E346334743469347D
:1021E6006F346E3420342D34003442346534613417
:1021F6006434733468346534653474347334003449
:102206004134713475346134533474346F347234F8
:102216006534003453347434613469346E3477343D
:102226006134733468340034443465346C3469344E
:102236006334613474346534733400345734613430
:102246007334683420346F346E346C34793400342B
:10225600523469346E34733465342B3444347234F6
:102266007934003457346F346F346C346C346534DD
:102276006E347334003444347234793420346F3419
:102286006E346C3479340034203444346134693427
:102296006C3479342034003428344D344D343A3497
:1022A6005334533429340034503472346F34673421
:1022B6003A34203400344D344534443449345534AA
:1022C6004D340034573468346934743465347334A7
:1022D60000345334703469346E342034003454344A
:1022E60069346D3465343A340034523469346E34AA
:1022F6007334653400344834653461347634793463
:102306000034543449344D34453400344834493467
:1023160047344834003457346134733468340034F5
:102326004134753474346F3400344C344F3457347C
:1023360000344D34613478340034FF1BAA298313EA
:102346007F1883170008840A0319FF0A08007F080C
:0E2356007F398A000408840A0319FF0A8200F6
:10265E008316031306083F388600080083160313FB
:10266E008801091189100A168A11C3240A168A11C3
:10267E0008008312031312149214FA3083160313F4
:10268E0092008C148312031312110800F30101300F
:10269E000A168A119A230A168A11A630F700F70B2A
:1026AE00562B000008007E088A007F0882000A165A
:1026BE008A115A230A168A118000840A04087D069C
:1026CE0003190034FF0A0319FE0A5E2B831203134B
:1026DE00A500F30124080A168A119A230A168A11F4
:1026EE00F301F30A8312031325080A168A119A239B
:1026FE000A168A1108000A168A1135230A168A113B
:10270E000A168A112F230A168A110A168A114023D5
:10271E000A168A110B178B178316031307118710CE
:10272E0006309F000800F60073189E2BA22B831212
:10273E0003130915A52B83120313091176088800BC
:10274E008914A630F400F40BAA2B00008312031395
:10275E0089101B30F5009E30F400F40BB42BF50BF2
:10276E00B42B00000800473491347E349134173472
:10277E009134653491340D349134E13490343534E0
:10278E009134F83490342B3491343E3491342134D6
:10279E0091340334913493349134983491345E34BB
:1027AE009134893491349C349134803083120313E4
:1027BE00C7064B08A3004A08A2004908A100480812
:1027CE00A0004708A7004608A6004508A500440833
:1027DE00A4000A128A1570250A168A118312031391
:1027EE002308C7002208C6002108C5002008C4001F
:1027FE00080083120313A400A001A1017308F500C1
:10280E00F6017508A2007608A300241C0F2C102CCC
:10281E00162C2208A0070318A10A2308A1070130CD
:10282E000310A20DA30DFF3E031D172C0310A40CC5
:10283E002408031D232C242C0C2C2108F400200822
:10284E00F300080083120313A001A101731C302CA6
:10285E00312C392C750883120313A0070318A10A13
:10286E007608A10701300310F50DF60DFF3E031D8E
:10287E003A2C01300310F40CF30CFF3E031D412CD7
:10288E0073087404031D4C2C4D2C2D2C8312031332
:10289E002108F4002008F3000800F301831203134B
:1028AE0022080A168A119A230A168A11762CF30127
:1028BE00F30A2108FF00200884000A168A11A021BD
:1028CE000A168A110A168A119A230A168A110130DB
:1028DE0083120313A0070318A10A0030A107831265
:1028EE0003132108FF00200884000A168A11A02174
:1028FE000A168A11003A031D852C862C5E2C0800C0
:10290E00831203138C1C8C2C8D2CBC2C0130831643
:10291E000313C7070318C80A0030C807E23047067A
:10292E00043003194806031D9D2C9E2CBA2CC7019A
:10293E00C80178080319A42CA52CA82C0130F80284
:10294E00BA2C7808031DAC2CAD2CBA2C83120313B1
:10295E006A080319B32CB42CBA2C0130EA023B30AE
:10296E00F0007008F80083128C1072088A00710E45
:10297E008300FE0E7E0E0900C33083120313A100E6
:10298E00CC30A000A00BC92CA10BC92C0000F30168
:10299E0033300A168A119A230A168A111B308312B3
:1029AE000313A1009D30A000A00BDB2CA10BDB2C90
:1029BE00E02CF30133300A168A119A230A168A1173
:1029CE00A53083120313A000A00BEB2CEE2CF30109
:1029DE0033300A168A119A230A168A11F62CF72C0E
:1029EE000000F30101300A168A119A230A168A1181
:1029FE00A53083120313A000A00B032D062DF301A7
:102A0E000C300A168A119A230A168A11A5308312DF
:102A1E000313A000A00B112D142D08008312031315
:102A2E00A101F61F1B2D1C2D232DF509F609F50A04
:102A3E000319F60AA101A10AF41F262D272D2C2D0C
:102A4E00F309F409F30A0319F40A73087404031959
:102A5E00312D322D612DA001A00A402D0130031021
:102A6E00F30DF40DFF3E031D362D0130F7007708F0
:102A7E00A007F41F432D442D352D74087602031D37
:102A8E004A2D73087502031C4D2D4E2D542D7308BF
:102A9E00F5027408031CF603F60201300310F40C61
:102AAE00F30CFF3E031D552D0130A002031D602DBA
:102ABE00612D442D21080319652D662D6B2DF50909
:102ACE00F609F50A0319F60A7608F4007508F300FC
:102ADE00080083120313A9012908803EA6002608C8
:102AEE00A400FF300A168A116D230A168A110130CE
:102AFE0083120313A6002608A90710302902031C0F
:102B0E00892D8A2D732D1130A0009030A100C03078
:102B1E00A6002608A2000A168A1154240A168A1143
:102B2E00553083120313A0009030A1009030A60000
:102B3E002608A2000A168A1154240A168A11831234
:102B4E000313AA012A08D03EA6002608A400FF30CF
:102B5E000A168A116D230A168A1101308312031385
:102B6E00A6002608AA0710302A02031CBF2DC02D6E
:102B7E00A92D4D3083120313A8001930A7004F3032
:102B8E00A600A60BC82DA70BC82DA80BC82D080094
:102B9E00831203130618D42DD52D362E8714071144
:102BAE0012110A168A114D230A168A11D530831274
:102BBE000313A0009030A1008030A3002308A200D0
:102BCE000A168A1154240A168A11AF30831203137F
:102BDE00A0009030A1009030A3002308A2000A1696
:102BEE008A1154240A168A1183120313061C002E0E
:102BFE00012EFB2D0A168A114D230A168A118312F5
:102C0E000313071512158710ED30A0009030A100A8
:102C1E008030A3002308A2000A168A1154240A1633
:102C2E008A11843083120313A0009130A100C030AA
:102C3E00A3002308A2000A168A1154240A168A1128
:102C4E00443083120313A0009030A100D030A300B3
:102C5E002308A2000A168A1154240A168A110800A3
:102C6E0083120313A101F41F3D2E3E2E452EF309B0
:102C7E00F409F30A0319F40AA101A10AF61F482E5A
:102C8E00492E522EF509F609F50A0319F60A0130F6
:102C9E00F7007708A106A201A301730874040319B3
:102CAE00592E5A2E912EA001A00A682E0130031023
:102CBE00F30DF40DFF3E031D5E2E0130F700770875
:102CCE00A007F41F6B2E6C2E5D2E01300310A20D8B
:102CDE00A30DFF3E031D6D2E74087602031D792E83
:102CEE0073087502031C7C2E7D2E842E7308F5024C
:102CFE007408031CF603F602221401300310F40CC0
:102D0E00F30CFF3E031D852E0130A002031D902EF5
:102D1E00912E6C2E21080319952E962E9B2EA2090C
:102D2E00A309A20A0319A30A2308F4002208F30038
:102D3E0008000030831203134C05D40000304D05FB
:102D4E00D50080304E05D6007F304F05D70057088E
:102D5E00560455045404031DB52EB62EBE2E003057
:102D6E00CF000030CE000030CD000030CC0000305F
:102D7E005005D40000305105D50080305205D600E4
:102D8E007F305305D7005708560455045404031DCD
:102D9E00D12ED22EDA2E0030D3000030D2000030E9
:102DAE00D1000030D000CF1FDD2EDE2E022F0030DE
:102DBE00D4000030D5000030D6008030D7004C084B
:102DCE00D4024D08031C4D0FED2EEE2ED5024E08EB
:102DDE00031C4E0FF32EF42ED6024F08031C4F0F7A
:102DEE00F92EFA2ED7025708CF005608CE005508F6
:102DFE00CD005408CC00D31F052F062F2A2F0030EC
:102E0E00D4000030D5000030D6008030D7005008F6
:102E1E00D4025108031C510F152F162FD50252083C
:102E2E00031C520F1B2F1C2FD6025308031C530FCB
:102E3E00212F222FD7025708D3005608D20055084B
:102E4E00D1005408D0008030CF068030D30653080E
:102E5E004F02031D3C2F52084E02031D3C2F5108FA
:102E6E004D02031D3C2F50084C0203183F2F402FDC
:102E7E00422F0310432F0314080083120313A400E0
:102E8E00240803194B2F4C2F602FF61F4F2F502F56
:102E9E00602F7309A6007409A7007509A8007609AA
:102EAE00A900A60A0319A70A0319A80A0319A90A51
:102EBE00682F7608A9007508A8007408A700730883
:102ECE00A6007608750474047304031D6F2F702F0B
:102EDE00792F0030F6000030F5000030F40000309D
:102EEE00F300FF2F9630A0002008A5008B2F013095
:102EFE00A0002008A50701300310A90CA80CA70CF0
:102F0E00A60CFF3E031D832FFE302905031D902FB7
:102F1E00912F7E2FAD2F0130A0002008A507013084
:102F2E00A607003003180130A70700300318013040
:102F3E00A807003003180130A90701300310A90CAF
:102F4E00A80CA70CA60CFF3E031DA52FFF302905CC
:102F5E00031DB22FB32F922FBF2F0130A5020130C8
:102F6E00A0000310A60DA70DA80DA90DA00BB82F3C
:102F7E00A81BC22FC32FC92F023025020318C82F3A
:102F8E00C92FB42F2518CC2FCD2FD52FFF30A60546
:102F9E00FF30A7057F30A805FF30A9050310A50C4B
:102FAE002508A000A101A201A30118300310A00D55
:102FBE00A10DA20DA30DFF3E031DDD2F2008A604BB
:102FCE002108A7042208A8042308A9042408031929
:102FDE00F12FF22FF72FF61FF52FF62FF72FA91738
:102FEE002908F6002808F5002708F4002608F30043
:022FFE000800C9
:02400E00FB3F76
:00000001FF
